:100000000C945D000C9485000C9485000C94850084
:100010000C9485000C9485000C9485000C9485004C
:100020000C9485000C9485000C9485000C9485003C
:100030000C9485000C9485000C9485000C9485002C
:100040000C949F020C9485000C946D020C94470252
:100050000C9485000C9485000C9485000C9485000C
:100060000C9485000C94850000000008000201003B
:100070000003040700000000000000000000000072
:10008000250028002B0000000000240027002A0083
:10009000040404040404040402020202020203032E
:1000A0000303030301020408102040800102040836
:1000B0001020010204081020AB0511241FBECFEF51
:1000C000D8E0DEBFCDBF11E0A0E0B1E0E8E1F1E1B2
:1000D00002C005900D92AE35B107D9F722E0AEE52A
:1000E000B1E001C01D92A430B207E1F710E0CDE508
:1000F000D0E004C02197FE010E946908CC35D107E9
:10010000C9F70E94E9020C948A080C94000090E060
:10011000FC01EC55FF4F249180579F4FFC018491C7
:10012000882399F090E0880F991FFC01EA57FF4F50
:10013000A591B491FC01E458FF4F859194918FB73C
:10014000F894EC91E22BEC938FBF0895AF92BF929D
:10015000CF92DF92EF92FF920F931F93CF93DF9393
:100160006C017B018B01040F151FEB015E01AE18C2
:10017000BF08C017D10759F06991D601ED91FC91E4
:100180000190F081E02DC6010995892B79F7C50111
:10019000DF91CF911F910F91FF90EF90DF90CF9063
:1001A000BF90AF900895FC01538D448D252F30E012
:1001B000842F90E0821B930B541710F0CF96089574
:1001C00001970895FC01918D828D981761F0A28DA1
:1001D000AE0FBF2FB11D5D968C91928D9F5F9F7367
:1001E000928F90E008958FEF9FEF089587E691E05A
:1001F0000E94E200BC017727072E000C880B990BA8
:100200000E94EF0620E030E04FE753E40E944506ED
:1002100020E030E040EA51E40E94D80720E030E0DE
:1002200040E251E40E94D805609346017093470173
:1002300080934801909349010895FC01918D828D2E
:10024000981731F0828DE80FF11D858D90E00895AB
:100250008FEF9FEF0895FC01918D228D892F90E003
:10026000805C9F4F821B91098F739927089587E6C1
:1002700091E00E942B0121E0892B09F420E0822FDC
:1002800008950E94370181110C94F6000895FC0135
:10029000A48DA80FB92FB11DA35ABF4F2C91848DE7
:1002A00090E001968F739927848FA689B7892C9344
:1002B000A089B1898C91837080648C93938D848D97
:1002C000981306C00288F389E02D80818F7D80839A
:1002D0000895EF92FF920F931F93CF93DF93EC015A
:1002E00081E0888F9B8D8C8D98131AC0E889F989DD
:1002F000808185FF15C09FB7F894EE89FF896083E0
:10030000E889F98980818370806480839FBF81E060
:1003100090E0DF91CF911F910F91FF90EF900895A2
:10032000F62E0B8D10E00F5F1F4F0F731127E02E7D
:100330008C8D8E110CC00FB607FCFACFE889F989B5
:10034000808185FFF5CFCE010E944701F1CFEB8D73
:10035000EC0FFD2FF11DE35AFF4FF0829FB7F89489
:100360000B8FEA89FB8980818062CFCFCF93DF93A7
:10037000EC01888D8823B9F0AA89BB89E889F989BD
:100380008C9185FD03C0808186FD0DC00FB607FCF2
:10039000F7CF8C9185FFF2CF808185FFEDCFCE0125
:1003A0000E944701E9CFDF91CF91089590E0FC01D1
:1003B000E859FF4F2491FC01EC55FF4F3491FC01AB
:1003C000E057FF4FE491EE23C9F0222339F02330A8
:1003D00001F1A8F4213019F1223029F1F0E0EE0FFB
:1003E000FF1FE458FF4FA591B4918FB7F894EC919B
:1003F000611126C030953E233C938FBF089527306E
:10040000A9F02830C9F0243049F7809180008F7D11
:1004100003C0809180008F7780938000DFCF84B508
:100420008F7784BDDBCF84B58F7DFBCF8091B0000B
:100430008F778093B000D2CF8091B0008F7DF9CFBD
:100440003E2BDACF3FB7F89480916301909164011D
:10045000A0916501B091660126B5A89B05C02F3F0C
:1004600019F00196A11DB11D3FBFBA2FA92F982FDA
:100470008827BC01CD01620F711D811D911D42E0D5
:10048000660F771F881F991F4A95D1F708951F920D
:100490000F920FB60F9211242F933F934F935F93B8
:1004A0006F937F938F939F93AF93BF93EF93FF933C
:1004B00087E691E00E944701FF91EF91BF91AF91D4
:1004C0009F918F917F916F915F914F913F912F916C
:1004D0000F900FBE0F901F9018951F920F920FB69E
:1004E0000F9211242F938F939F93EF93FF93E0919B
:1004F0007701F09178018081E0917D01F0917E019A
:1005000082FD1BC09081809180018F5F8F7320914D
:100510008101821741F0E0918001F0E0E959FE4F3E
:10052000958F80938001FF91EF919F918F912F91F3
:100530000F900FBE0F901F9018958081F4CF1F92DF
:100540000F920FB60F9211242F933F938F939F9387
:10055000AF93BF9380915F0190916001A091610181
:10056000B091620130915E0123E0230F2D3758F5E1
:100570000196A11DB11D20935E0180935F019093B0
:100580006001A0936101B093620180916301909139
:100590006401A0916501B09166010196A11DB11D94
:1005A0008093630190936401A0936501B093660109
:1005B000BF91AF919F918F913F912F910F900FBE5F
:1005C0000F901F90189526E8230F0296A11DB11DCC
:1005D000D2CFCF93DF9300D000D000D0CDB7DEB71D
:1005E000789484B5826084BD84B5816084BD85B50E
:1005F000826085BD85B5816085BD80916E0081601A
:1006000080936E00109281008091810082608093BF
:1006100081008091810081608093810080918000C1
:100620008160809380008091B10084608093B100EC
:100630008091B00081608093B00080917A008460E6
:1006400080937A0080917A00826080937A00809112
:100650007A00816080937A0080917A00806880932C
:100660007A001092C100E0917701F091780182E068
:100670008083E0917301F09174011082E091750123
:10068000F091760180E1808310927F01E0917B01FF
:10069000F0917C0186E08083E0917901F0917A010C
:1006A000808180618083E0917901F0917A0180817D
:1006B00088608083E0917901F0917A01808180687F
:1006C0008083E0917901F0917A0180818F7D808330
:1006D000809102010E948700209102012983822FCC
:1006E0000E94870060E089810E94D601C0900601C7
:1006F000D0900701E0900801F09009010CE011E0B2
:1007000080E091E09A838983A7019601E981FA81CB
:1007100062897389848995890E944506E981FA81F5
:10072000628B738B848B958B3496FA83E9830E17D7
:100730001F0751F7A701960160910A0170910B0103
:1007400080910C0190910D010E94450660930A0171
:1007500070930B0180930C0190930D01A7019601FA
:1007600060910E0170910F01809110019091110123
:100770000E94450660930E0170930F018093100153
:100780009093110148E050E06AE271E08EE291E05E
:100790000E946F08809100018E3008F08E508770A3
:1007A000806480937C0080917A00806480937A00DA
:1007B00080917A0086FDFCCF80917800609179006D
:1007C000762F682F072E000C880B990B0E94EF06DE
:1007D00020E030EC4FE754E40E9445064B015C01F9
:1007E000C0903601D0903701E0903801F090390187
:1007F000A701960160913A0170913B0180913C0103
:1008000090913D010E94D805A50194010E94D8074E
:10081000A70196010E94D9059B01AC016091460198
:100820007091470180914801909149010E94D8053B
:1008300060932A0170932B0180932C0190932D01DA
:1008400048E050E06EE171E082E291E00E946F08C2
:1008500082E191E09A8389830EE111E0C12CD12CD1
:100860007601E981FA816191719181919191FA8387
:10087000E98324893589468957890E94D8079B01D5
:10088000AC01C701B6010E94D9056B017C018981C9
:100890009A810817190729F720910A0130910B0155
:1008A00040910C0150910D01609122017091230142
:1008B00080912401909125010E94D8079B01AC01F1
:1008C000C701B6010E94D8056B017C012091260169
:1008D00030912701409128015091290160910E012A
:1008E00070910F0180911001909111010E94D80721
:1008F0009B01AC01C701B6010E94D8058B016C01B8
:10090000E0904201F0904301909144019E83E09178
:100910004501ED839701492F5E2FB801C6010E9462
:10092000D30718160CF456C0C801D60180931E01D7
:1009300090931F01A0932001B093210140903E01AC
:1009400050903F016090400170904101A3019201DD
:10095000B801C6010E94D80520E030E04FE753E41B
:100960000E94D80769837A838B839C83A3019201B9
:10097000B7018E819D810E94D8059B01AC016981E0
:100980007A818B819C810E9445060E942A070E94E1
:10099000B7066B017A83698377FF02C01A821982D6
:1009A000E981FA81EF3FF10529F024F08FEF90E023
:1009B0009A838983E0900201F09003018E2D0E94BA
:1009C000870019811C141D044CF060E08E2D0E94DC
:1009D000D60136C08701CE80DD80A6CF9FEFC91635
:1009E000D10414F061E0F2CFF701FF27E859FF4F7F
:1009F000E491E33009F489C050F4E130E1F0E230F1
:100A000009F47DC080E8C816D10464F7DECFE73072
:100A100009F487C0E83009F48DC0E43099F780917B
:100A20008000806280938000E981FA81F0938B00DE
:100A3000E0938A0005C084B5806884BDE981E7BD84
:100A400020E030E04FE753E4C501B4010E94D8072D
:100A50000E942A070E94BE0687E691E00E94690173
:100A600020E030E040EA51E4609146017091470196
:100A700080914801909149010E94D90520E030E021
:100A800040E252E40E94450620E030E04FE753E4A4
:100A90000E94D8070E942A070E94BE0687E691E0BE
:100AA0000E946901612F87E691E00E946901C09070
:100AB0000401D09005010D2C000CEE08FF080E94E7
:100AC00022024B015C01C114D104E104F104D9F10B
:100AD0000E942202681979098A099B09683E7340BD
:100AE0008105910580F391E0C91AD108E108F10868
:100AF000E8EE8E0EE3E09E1EA11CB11CE4CF84B58F
:100B0000806284BDF981F8BD9BCF809180008068B0
:100B10008093800089819A819093890080938800D6
:100B20008FCF8091B00080688093B000F981F093FE
:100B3000B30086CF8091B00080628093B00029819D
:100B40002093B4007DCF0E943701882309F41ACE88
:100B50000E94F60017CEE7E6F1E01382128288EEDB
:100B600093E0A0E0B0E084839583A683B78380E51B
:100B700091E09183808385EC90E09587848784EC75
:100B800090E09787868780EC90E0918B808B81EC5A
:100B900090E0938B828B82EC90E0958B848B86EC3B
:100BA00090E0978B868B118E128E138E148E089583
:100BB0005058BB27AA270E94F0050C9481070E9479
:100BC000730738F00E947A0720F039F49F3F19F438
:100BD00026F40C9470070EF4E095E7FB0C944107A3
:100BE000E92F0E94920758F3BA1762077307840728
:100BF000950720F079F4A6F50C94CC070EF4E09557
:100C00000B2EBA2FA02D0B01B90190010C01CA01C6
:100C1000A0011124FF27591B99F0593F50F4503E71
:100C200068F11A16F040A22F232F342F4427585F63
:100C3000F3CF469537952795A795F0405395C9F77B
:100C40007EF41F16BA0B620B730B840BBAF0915033
:100C5000A1F0FF0FBB1F661F771F881FC2F70EC0D2
:100C6000BA0F621F731F841F48F4879577956795A5
:100C7000B795F7959E3F08F0B0CF9395880F08F091
:100C80009927EE0F9795879508950E9459060C9421
:100C900081070E947A0758F00E94730740F029F4F8
:100CA0005F3F29F00C94410751110C94CD070C942F
:100CB00070070E94920768F39923B1F3552391F3CB
:100CC000951B550BBB27AA2762177307840738F0BB
:100CD0009F5F5F4F220F331F441FAA1FA9F335D018
:100CE0000E2E3AF0E0E832D091505040E695001CCC
:100CF000CAF72BD0FE2F29D0660F771F881FBB1F86
:100D0000261737074807AB07B0E809F0BB0B802D63
:100D1000BF01FF2793585F4F3AF09E3F510578F08F
:100D20000C9441070C94CD075F3FE4F3983ED4F355
:100D3000869577956795B795F7959F5FC9F7880F63
:100D4000911D9695879597F90895E1E0660F771FB5
:100D5000881FBB1F621773078407BA0720F0621B46
:100D6000730B840BBA0BEE1F88F7E09508950E9471
:100D7000BE066894B1110C94CD0708950E949A079D
:100D800088F09F5798F0B92F9927B751B0F0E1F04C
:100D9000660F771F881F991F1AF0BA95C9F714C0FC
:100DA000B13091F00E94CC07B1E008950C94CC07CB
:100DB000672F782F8827B85F39F0B93FCCF3869535
:100DC00077956795B395D9F73EF490958095709592
:100DD00061957F4F8F4F9F4F0895E89409C097FB0F
:100DE0003EF490958095709561957F4F8F4F9F4F02
:100DF0009923A9F0F92F96E9BB279395F695879546
:100E000077956795B795F111F8CFFAF4BB0F11F408
:100E100060FF1BC06F5F7F4F8F4F9F4F16C08823AF
:100E200011F096E911C0772321F09EE8872F762FE5
:100E300005C0662371F096E8862F70E060E02AF026
:100E40009A95660F771F881FDAF7880F9695879512
:100E500097F908950E94B40790F09F3748F49111D4
:100E600016F00C94CD0760E070E080E89FEB0895E9
:100E700026F41B16611D711D811D0C9447070C94EF
:100E8000620797F99F6780E870E060E00895882323
:100E900071F4772321F09850872B762F07C06623B3
:100EA00011F499270DC09051862B70E060E02AF074
:100EB0009A95660F771F881FDAF7880F96958795A2
:100EC00097F908959F3F31F0915020F487957795D9
:100ED0006795B795880F911D9695879597F9089511
:100EE0009FEF80EC089500240A9416161706180642
:100EF0000906089500240A9412161306140605061E
:100F00000895092E0394000C11F4882352F0BB0FAE
:100F100040F4BF2B11F460FF04C06F5F7F4F8F4F11
:100F20009F4F089557FD9058440F551F59F05F3F4C
:100F300071F04795880F97FB991F61F09F3F79F0FB
:100F400087950895121613061406551FF2CF46957D
:100F5000F1DF08C0161617061806991FF1CF8695FF
:100F600071056105089408950E949A07A0F0BEE7F4
:100F7000B91788F4BB279F3860F41616B11D672F88
:100F8000782F8827985FF7CF869577956795B11D5D
:100F900093959639C8F30895E894BB276627772779
:100FA000CB0197F908950E94450808F48FEF089542
:100FB0000E94EB070C9481070E94730738F00E948F
:100FC0007A0720F0952311F00C9441070C947007D8
:100FD00011240C94CD070E94920770F3959FC1F3E2
:100FE000950F50E0551F629FF001729FBB27F00DD7
:100FF000B11D639FAA27F00DB11DAA1F649F66272C
:10100000B00DA11D661F829F2227B00DA11D621F7A
:10101000739FB00DA11D621F839FA00D611D221F34
:10102000749F3327A00D611D231F849F600D211D18
:10103000822F762F6A2F11249F5750409AF0F1F09B
:1010400088234AF0EE0FFF1FBB1F661F771F881F04
:1010500091505040A9F79E3F510580F00C944107F4
:101060000C94CD075F3FE4F3983ED4F386957795D3
:101070006795B795F795E7959F5FC1F7FE2B880FAA
:10108000911D9695879597F90895990F0008550F2A
:10109000AA0BE0E8FEEF16161706E807F907C0F0FE
:1010A00012161306E407F50798F0621B730B840B06
:1010B000950B39F40A2661F0232B242B252B21F4E0
:1010C00008950A2609F4A140A6958FEF811D811D80
:1010D0000895EE0FFF1F0590F491E02D0994681715
:1010E000790768F4FB01DC01E40FF51FA40FB51FBD
:1010F00002C002900E9241505040D8F708950C94CF
:101100008108FB01DC0102C001900D92415050406A
:08111000D8F70895F894FFCF11
:10111800000005000A000000803FC18BF8BF83175C
:10112800713F0A67773E8C9FBEBEA0A6063E0000B0
:1011380000000000000000000000000000000000A7
:101148000000000000000000A0C10000A041000055
:1011580020C1000020410000000000000000000045
:0E1168006901A600D300B6012B01E2001D01B3
:00000001FF
